:020000040800F2
:1000000000000320AD010008E7010008E701000837
:10001000E7010008E7010008E70100080000000010
:10002000000000000000000000000000E7010008E0
:10003000E701000800000000E7010008C502000811
:10004000E7010008E7010008E7010008E7010008F0
:10005000E7010008E7010008E7010008E7010008E0
:10006000E7010008E7010008E7010008E7010008D0
:10007000E7010008E7010008E7010008E7010008C0
:10008000E7010008E7010008E7010008C9020008CD
:10009000D5020008E7010008E7010008E7010008B1
:1000A000E7010008E7010008E7010008E701000890
:1000B000E7010008E7010008E7010008E701000880
:1000C000E7010008E7010008E7010008E701000870
:1000D000E7010008E7010008E7010008E701000860
:1000E000E7010008E7010008E7010008E701000850
:1000F000E7010008E7010008E7010008E701000840
:10010000E7010008E7010008E7010008E70100082F
:10011000E7010008E7010008E7010008E70100081F
:10012000E7010008E7010008E7010008E70100080F
:10013000E7010008E7010008E7010008E7010008FF
:10014000E7010008E7010008E7010008E7010008EF
:10015000E7010008E7010008E7010008E7010008DF
:10016000E7010008E7010008E7010008E7010008CF
:10017000E7010008E7010008E701000800000000AF
:10018000E7010008E7010008E7010008E7010008AF
:10019000E7010008E7010008E7010008E70100089F
:0C01A0000000000000000000E701000863
:1001AC000F48854600F002F900F084FA0D490E4A1A
:1001BC000E4B9A4204D251F8040B42F8040BF8E7A8
:1001CC000B490C4A0020914202D241F8040BFAE789
:1001DC0001F088FB00F0EEF8FEE700F0E8B8000054
:1001EC00000003204C1A0008000000201000002022
:1001FC00100000203402002053B94AB9002908BF6E
:10020C0000281CBF4FF0FF314FF0FF3000F00CB84E
:10021C00ADF1080C6DE904CE01F0B4F9DDF804E0A1
:10022C00DDE9022304B07047704700BF0348044B5C
:10023C00834202D0034B03B11847704710000020D3
:10024C0010000020000000000548064B1B1AD90FB7
:10025C0001EBA301491002D0034B03B118477047BF
:10026C0010000020100000200000000010B5064C0B
:10027C00237843B9FFF7DAFF044B13B10448AFF30B
:10028C0000800123237010BD10000020000000002E
:10029C00101A000808B5054B1BB105490548AFF30A
:1002AC000080BDE80840FFF7CFBF00BF0000000092
:1002BC0014000020101A000800F046BA014800F0A3
:1002CC008EBC00BF70000020FFF7F8BF00B50A4BD2
:1002DC0083428BB00CD101AB03AA002100F0E6FBEA
:1002EC0030B9064A136801331360054B039A1A6040
:1002FC000BB05DF804FB00BF700000203000002044
:10030C002C00002010B594B0102200210AA801F096
:10031C0097FA1422002103A801F092FA204B002135
:10032C0001911A6C42F080521A641B6C03F08053DA
:10033C000193019B1B4B02911A6842F440421A60D4
:10034C001B6803F440430293029B01214FF480335A
:10035C000224CDE908134FF480030620CDE90E43A7
:10036C00A823CDE91003072308A81294139300F0D7
:10037C0093FE08B172B6FEE70F23CDE90334059066
:10038C004FF4A0524FF48053052103A8CDE9062366
:10039C0001F05EF808B172B6FEE714B010BD00BFF4
:1003AC00003802400070004072B6FEE7704772B62B
:1003BC00FEE700002DE9F04700248CB000F0AAF90C
:1003CC00FFF7A0FFCDE90444544B019406941A6B3B
:1003DC00534842F010021A631B6B03F01003012503
:1003EC0001934FF4006602A9019BCDE9026500F070
:1003FC0061FD4B482246314600F040FE00F09EF86D
:10040C000E2348480A9502A9CDE90244CDE90444DB
:10041C00CDE90644CDE908450B9300F037FA414885
:10042C0000F0BAFA08B172B6FEE73E48022100F0BD
:10043C00B9FB044608B172B6FEE73B4B3B4D187551
:10044C004FF400721A600822C3E902001A61384B9B
:10045C00286040F2FF11C3E90200686019601A615C
:10046C00187500F07DF9DFF8CC80DFF8CC90DFF860
:10047C00B0A0074600F074F942F6F822C31BB3FB98
:10048C00F2F102FB1133B3F57A7F064643D340F603
:10049C00B732934231D8A3F57A7340F2DC5253430E
:1004AC004FF4FA62B3FBF2F3C3F307221D482A7030
:1004BC00DBB26B70AA70EB702A716B71AA71EB7165
:1004CC0000F0E0FA01280BD9184A1749154802AB7D
:1004DC0000F08DFA154A1649124802AB00F087FA63
:1004EC00331BF92B05D94FF40061504600F0CBFDBE
:1004FC003446012000F03AF9BCE741F657329342FA
:10050C0006D942F22732934205D808FB0393C7E77A
:10051C0040F2DC53C8E70023C6E700BF00380240B6
:10052C000010024070000020540000203400002015
:10053C003C00002024FAFFFF60FECD000D480E4A5F
:10054C0008B50323C0E900230023C0E902334FF4AC
:10055C0010214FF4001283614FF48073C0E9041230
:10056C00838300F017F918B1BDE80840FFF71CBFF2
:10057C0008BD00BF700000200064004010B51422BC
:10058C008AB0044600210DEB020001F059F92368F2
:10059C00424A93423AD1424A13680133012B136009
:1005AC000BD1002300933F4B1A6C42F000721A647B
:1005BC001B6C03F000730093009B3A4B3A480024E9
:1005CC0001941A6B42F008021A631B6B03F00803C8
:1005DC0001930222019B0323CDE90532089305A95F
:1005EC000923099300F066FC22460621132000F033
:1005FC000DFC132000F03CFC14202246062100F0D8
:10060C0005FC142000F034FC0AB010BD274A9342BC
:10061C00FAD1244B2248002102911A6C42F08062DC
:10062C001A641A6C02F080620292029A0268013219
:10063C00012A026009D103911A6C42F000721A640B
:10064C001B6C03F000730393039B164B1848002498
:10065C0004941A6B42F002021A631B6B03F0020340
:10066C0004934FF44052049B0223CDE9052303214C
:10067C000923CDE9081305A900F01CFC224606212C
:10068C003F2000F0C3FB3F2000F0F2FB402022464D
:10069C00062100F0BBFB4020B4E700BF0064004023
:1006AC006C00002000380240000C02400068004042
:1006BC0000040240034AD2F8883043F47003C2F8B5
:1006CC008830704700ED00E07047000038B50E4BE5
:1006DC001A784FF47A73B3FBF2F30C4A05461068A0
:1006EC00B0FBF3F000F0D2FB044658B90F2D09D83B
:1006FC00024629464FF0FF3000F088FB044B2046A1
:10070C001D6038BD0120FCE7040000200000002023
:10071C000800002008B50B4B1A6842F400721A60EE
:10072C001A6842F480621A601A6842F480721A6085
:10073C00032000F059FB0F20FFF7C8FFFFF7C4FFA1
:10074C00002008BD003C0240034A044B11681B7892
:10075C000B441360704700BF980000200400002079
:10076C00014B1868704700BF9800002038B504464C
:10077C00FFF7F6FF631C1CBF054B1B78054618BF23
:10078C00E418FFF7EDFF431BA342FAD338BD00BFBB
:10079C000400002038B5044600286ED090F82030B4
:1007AC000BB9FFF7EBFE2268136843F001031360EB
:1007BC00FFF7D6FF054623685A68D10751D51A684A
:1007CC0022F002021A60FFF7CBFF054623685A6835
:1007DC00920754D4227E012A1A680CBF42F0800280
:1007EC0022F080021A60627E012A1A680CBF42F065
:1007FC00400222F040021A60A27E012A1A680CBF45
:10080C0042F0200222F020021A60E27E012A1A68CD
:10081C000CBF22F0100242F010021A60227F012A53
:10082C001A680CBF42F0080222F008021A60627FBC
:10083C00012A1A680CBF42F0040222F004021A606A
:10084C00D4E902210A4321690A4361690A436168B8
:10085C0001390A43DA6100200123606284F82030F8
:10086C000CE0FFF77DFF401B0A28A4D9636A43F410
:10087C0000336362052384F82030012038BDFFF774
:10088C006FFF401B0A28A1D9F0E7000030B590F8A3
:10089C002030013B012B77D83E4BD3F8002242F09D
:1008AC000102C3F80022D3F8002222F47C52C3F8D0
:1008BC000022D3F80022486A42EA0022C3F8002240
:1008CC004A69D3F81C5202F01F040120A04025EA0B
:1008DC000005C3F81C52CD69C443002D35D1D3F8A3
:1008EC000C522540C3F80C52CB688D8845EA034561
:1008FC00D30003F1804303F5C8430A88C3F8405280
:10090C008D6842EA0542C3F844228A69214B8ABBAE
:10091C00D3F804222240C3F804220A6972BBD3F82C
:10092C0014221440C3F814420B6A012B194B02BF5A
:10093C00D3F81C220243C3F81C22D3F8002222F065
:10094C000102C3F80022002030BD012DDDD1D3F807
:10095C000C520543C3F80C520B688D8845EA0345CD
:10096C00D30003F1804303F5C8438A89C3F840528E
:10097C008D68C6E7D3F804220243CCE7D3F81422DF
:10098C000243C3F81422CFE7436A43F48023436243
:10099C000120D9E70064004038B590F82030012BD5
:1009AC0004461FD10268022380F82030136823F01C
:1009BC0001031360FFF7D4FE05462368586810F056
:1009CC00010001D1606238BDFFF7CAFE401B0A2846
:1009DC00F3D9636A43F400336362052384F820304F
:1009EC000120F0E7436A43F400234362F8E7F0B5D3
:1009FC0090F820500468013D012DA6683ED816F0F1
:100A0C00E05F35D0C6F30160012585401D60D1E95A
:100A1C00025700F1180325BB0D681B0147EA455727
:100A2C00E75004EB00130E69C3F88461097D0129BA
:100A3C0008BFD3F884114FEA001504BF41F480714C
:100A4C00C3F884112C445168C4F88C111268C4F892
:100A5C008821D3F8802142F00102C3F880210020C4
:100A6C00F0BD4E683D431B0145EAC605E550D8E78D
:100A7C00436A43F4001343620120F1E7436A43F4F1
:100A8C008023F8E790F82030013B012B0CD8036849
:100A9C0098689A689B681201C0F3806048BF013067
:100AAC00DB0002D50130704700207047F0B590F89C
:100ABC002040013C012C71D8066841B9F468A407A8
:100ACC0007D1436A43F4001343620120F0BD34693B
:100ADC00F5E706EB01150C01D5F8B07107F004072A
:100AEC009760002F50D1D5F8B0717F0D1760D5F8F5
:100AFC00B07107F00207D760D5F8B4713F0756BF45
:100B0C00D5F8B471082707F00F071761D5F8B47141
:100B1C00D5F8B4512644C7F307272D0C97615561BE
:100B2C00D6F8B8211A7002682244D2F8B821120AF9
:100B3C005A7002682244D2F8B821120C9A700268DA
:100B4C002244D2F8B821120EDA7002682244D2F88C
:100B5C00BC211A7102682244D2F8BC21120A5A71C3
:100B6C0002682244D2F8BC21120C9A710268224409
:100B7C00D2F8BC21120EDA71036851B9DA6842F06E
:100B8C002002DA600020A1E7D5F8B071FF085760A9
:100B9C00ADE71A6942F020021A61F3E7436A43F4A5
:100BAC00802391E790F82030013B012B05D8026897
:100BBC0053691943516100207047436A43F4802301
:100BCC004362012070477047704770477047704709
:100BDC0070477047704770477047704770472DE9F2
:100BEC00F84F03685E69D3F80490D3F80880D3F803
:100BFC000CB0D3F810A09F6916F00104054627D05D
:100C0C0018F0010F07D0012218F0020F9A6000F0C3
:100C1C00A580FFF7D8FF002418F4807F0AD02B683A
:100C2C004FF4807218F4007F9A6000F0A68028467A
:100C3C00FFF7CAFF18F4803F0AD02B684FF48032BC
:100C4C0018F4003F9A6000F0A8802846FFF7BDFF1B
:100C5C00310707D51BF0100F1FBF2B68102244F46F
:100C6C000074DA60720708D51BF0080F05D02B68EA
:100C7C000822DA602846FFF7ACFFB30706D52B68CD
:100C8C00DB68980702D02846FFF720FB710607D5D2
:100C9C001AF0100F1FBF2B68102244F480641A61E5
:100CAC00B20608D51AF0080F05D02B6808221A6175
:100CBC002846FFF790FFF30606D52B681B699807AB
:100CCC0002D02846FFF786FFB10308D519F0100FA4
:100CDC0005D02B6810225A602846FFF77DFFF203DF
:100CEC0008D519F0080F05D02B6808225A60284641
:100CFC00FFF773FF330428D519F0040F2A6822D0AC
:100D0C00F00544BF07F001031C43B10503D5BB0735
:100D1C0048BF44F00204700503D5790748BF44F07E
:100D2C00040433050FD517F070030CD0402B54D0AE
:100D3C0043D8202B4BD0302B4CD0102B44D0936964
:100D4C0023F070039361042353602CB16B6A23432B
:100D5C006B622846FFF742FFBDE8F88F18F0040FCE
:100D6C0005D118F0080F05D1FFF730FF53E74FF40A
:100D7C00006451E74FF480544EE718F4806F02D0B2
:100D8C0044F4005456E718F4006F02D044F4804445
:100D9C0050E72846FFF71BFF4CE718F4802F02D0D2
:100DAC0044F4004454E718F4002F02D044F4803487
:100DBC004EE72846FFF70CFF4AE7502B10D0602B6C
:100DCC00BDD144F48074BAE744F00804B7E744F0AA
:100DDC001004B4E744F02004B1E744F04004AEE75B
:100DEC0044F08004ABE700000749CA6822F4E062D3
:100DFC000302120403F4E063120C134343F0BF63C9
:100E0C0043F40033CB60704700ED00E0164B30B577
:100E1C00DC68C4F30224C4F10703251D042B28BF8E
:100E2C000423062D4FF0FF358CBF033C002405FA3C
:100E3C0003F321EA0303A54022EA0502A34000289C
:100E4C0043EA0203ACBF00F16040084A4FEA0313C7
:100E5C00B8BF00F00F00DBB2AABF00F5614013541D
:100E6C0080F8003330BD00BF00ED00E014ED00E071
:100E7C00002807DB044A4109012300F01F008340CE
:100E8C0042F82130704700BF00E100E00138B0F1BA
:100E9C00807F0BD24FF0E023054A5861F02182F895
:100EAC0023100020072298611A61704701207047B7
:100EBC0000ED00E02DE9F74FDFF8BC916C4A002300
:100ECC000D6801249C4004EA0506AC4340F0B78051
:100EDC004D68032705F003044FEA430807FA08FCA2
:100EEC00671E012F6FEA0C0C34D8876807EA0C0ECA
:100EFC00CF6807FA08F747EA0E078760476827EAC2
:100F0C00060EC5F300179F4047EA0E074760C768F7
:100F1C0007EA0C0E8F6807FA08F747EA0E07022C4F
:100F2C00C76019D14FEAD30A00EB8A0A03F0070B0A
:100F3C00DAF820704FEA8B0B4FF00F0E0EFA0BFE07
:100F4C0027EA0E0E0F6907FA0BF747EA0E07CAF8E5
:100F5C00207001E0032CDAD1076804FA08F407EAE0
:100F6C000C073C4315F4403F046068D00024019406
:100F7C00D9F8444044F48044C9F84440D9F844407A
:100F8C0023F0030707F1804704F4804407F59C37EE
:100F9C00019403F0030C019CD7F808E04FEA8C0C89
:100FAC000F2404FA0CF42EEA040E324CA0424DD05D
:100FBC0004F58064A0424BD004F58064A04249D073
:100FCC0004F58064A04247D004F58064A04245D06B
:100FDC0004F58064A04243D004F58064A04241D063
:100FEC0004F58064A0423FD004F58064A0423DD05B
:100FFC0004F58064A04214BF0A24092404FA0CF4FA
:10100C0044EA0E04BC609468F74315F4801F0CBFCF
:10101C003C4034439460D46815F4001F0CBF3C4032
:10102C003443D460546815F4003F0CBF3C40344347
:10103C0054601468ED0354BF3C40344314600133D6
:10104C00102B7FF43DAF03B0BDE8F08F0024D5E743
:10105C000124D3E70224D1E70324CFE70424CDE70E
:10106C000524CBE70624C9E70724C7E70824C5E70E
:10107C00003C014000000240003802400AB181618E
:10108C0070470904FBE7436901EA030221EA030103
:10109C0041EA0241816170472DE9F341044640B3B6
:1010AC000368DE0710D423689D075BD423681907F7
:1010BC0000F19D8023685A0700F1BD80A369002BC5
:1010CC0040F0248100202CE08D4B9A6802F00C0239
:1010DC00042A07D09A6802F00C02082A0BD15B682C
:1010EC00590208D5864B1B689A03DCD56368002B24
:1010FC00D9D1012015E06368814DB3F5803F13D140
:10110C002B6843F480332B60FFF72AFB7C4E05469B
:10111C0033689B03C7D4FFF723FB401B6428F7D924
:10112C00032002B0BDE8F081B3F5A02F04D12B68E9
:10113C0043F480232B60E3E72A6822F480322A6090
:10114C002A6822F480222A60002BDDD1FFF708FBED
:10115C0006462B689F03A6D5FFF702FB801B64286D
:10116C00F7D9DDE7664B9A6812F00C0F07D09A6836
:10117C0002F00C02082A11D15B685D020ED4604AA1
:10118C001368990702D5E368012BB2D11368216962
:10119C0023F0F80343EAC103136087E7E268594B75
:1011AC00B2B101221A60FFF7DBFA554D06462B68E7
:1011BC009B0707D52B68226923F0F80343EAC20387
:1011CC002B6073E7FFF7CCFA801B0228EFD9A7E757
:1011DC001A60FFF7C5FA4A4E054633689F077FF53C
:1011EC0065AFFFF7BDFA401B0228F6D998E7626994
:1011FC00444B82B10122C3F8802EFFF7B1FA404E66
:10120C000546736F9B073FF555AFFFF7A9FA401BD7
:10121C000228F6D984E7C3F8802EFFF7A1FA384EDE
:10122C000546736F9F077FF545AFFFF799FA401B93
:10123C000228F6D974E7324B1A6C12F0805228D17E
:10124C0001921A6C42F080521A641B6C03F08053AA
:10125C000193019B01272C4D2B68D8051BD5A36846
:10126C00274D012B27D12B6F43F001032B67FFF781
:10127C0077FA234E054641F28838336F9A0739D5F1
:10128C00002F3FF41BAF1E4A136C23F080531364E2
:10129C0014E70027DFE72B6843F480732B60FFF71C
:1012AC005FFA06462B68D905D9D4FFF759FA801B8B
:1012BC000228F7D934E7052B04D12B6F43F0040334
:1012CC002B67D0E72A6F22F001022A672A6F22F0DF
:1012DC0004022A67002BCAD1FFF742FA41F2883880
:1012EC0006462B6F9B07CBD5FFF73AFA801B404580
:1012FC00F7D915E7FFF734FA401B4045BDD90FE786
:10130C00003802400000474200700040374DAA6888
:10131C0002F00C02082A3ED0022B354B4FF0000293
:10132C001A662BD1FFF71CFA06462B6899011FD4BD
:10133C00D4E907321343626A43EA8213E26A43EA4E
:10134C000263A26A5208013A43EA02436B60284BDB
:10135C00264D01221A66FFF703FA04462B689A0100
:10136C003FF5B0AEFFF7FCF9001B0228F6D9D7E623
:10137C00FFF7F6F9801B0228D7D9D1E6FFF7F0F971
:10138C0004462B689B017FF59DAEFFF7E9F9001B26
:10139C000228F6D9C4E6012B3FF4ABAE6B68E269C8
:1013AC0003F4800191427FF4A4AE216A03F03F0262
:1013BC008A427FF49EAE616A47F6C0721A40B2EB65
:1013CC00811F7FF496AEA26A520803F44031013AB1
:1013DC00B1EB024F7FF48DAEE26A03F07063B3EBB6
:1013EC00026F14BF012000209BE600BF00380240B2
:1013FC0000004742134908B58B6803F00C03042B1B
:10140C001CD0082B1CD14A684B68496813F4800324
:10141C0014BF0D480D48C1F3881118BF002302F00A
:10142C003F02A1FB0001FEF7E7FE064B5B68C3F32E
:10143C00014301335B00B0FBF3F008BD0248FCE74D
:10144C000248FAE700380240001BB7000024F40001
:10145C002DE9F0410D46044610B90120BDE8F0819C
:10146C00434B1A6802F00F028A4228D321688F0777
:10147C002DD4C80740D43E4B1A6802F00F02AA4282
:10148C0065D8226851076BD4130707D5394A2169EF
:10149C00936823F4604343EAC1039360FFF7AAFF08
:1014AC00344B354A9B68C3F30313D35CD840334B9E
:1014BC001860334B1868FFF709F90020CEE7CAB261
:1014CC001A701B6803F00F038B42C6D1CEE7294B71
:1014DC0011F0040F1EBF9A6842F4E0529A600E0796
:1014EC0042BF9A6842F460429A609A68A06822F0FF
:1014FC00F00202439A60BCE762681E4B012A1CD1C1
:10150C001B6813F4003FA8D01A4EB36823F00303F2
:10151C001343B360FFF724F941F288380746B368E8
:10152C00626803F00C03B3EB820FA4D0FFF718F939
:10153C00C01B4045F3D9032090E7911E01291B687D
:10154C0002D813F0007FDEE713F0020FDBE7EAB2FC
:10155C001A701B6803F00F03AB427FF47EAF90E769
:10156C000449E0688B6823F4E05303438B608BE7FA
:10157C00003C024000380240281A000800000020FD
:10158C00080000202DE9F047089D0E4604460F4642
:10159C00002B4AD194468C45B2FA82F260D942B102
:1015AC00C2F12003974020FA03F30CFA02FC1F430C
:1015BC0094404FEA1C4E1FFA8CF6B7FBFEF1230C3D
:1015CC000EFB117743EA074301FB06F098420AD958
:1015DC001CEB030301F1FF3780F01581984240F2B8
:1015EC001281023963441B1AA4B2B3FBFEF00EFB4A
:1015FC00103344EA034400FB06F6A6420AD91CEB5E
:10160C00040400F1FF3380F00081A64240F2FD801B
:10161C006444023840EA0140A41B00211DB1D440AF
:10162C000023C5E90043BDE8F0878B4205D90DB115
:10163C00C5E9000100210846F5E7B3FA83F100295A
:10164C0046D1B34202D3824200F2F580841A66EB93
:10165C00030201201746002DE5D0C5E90047E2E75B
:10166C00002A40F09380A1EB0C034FEA1C471FFAB1
:10167C008CFE0121B3FBF7F607FB1630230C43EA73
:10168C0000430EFB06F0984208D91CEB030306F14D
:10169C00FF3802D2984200F2D08046461B1AA4B200
:1016AC00B3FBF7F007FB103344EA03440EFB00FED8
:1016BC00A64508D91CEB040400F1FF3302D2A64561
:1016CC0000F2B6801846A4EB0E0440EA0640A5E7EB
:1016DC00C1F120078B4022FA07FC4CEA030C06FAF6
:1016EC0001FE20FA07F426FA07F344EA0E0400FA86
:1016FC0001F84FEA1C404FEA1449B3FBF0FE1FFA05
:10170C008CF600FB1E3349EA03430EFB06F99945A0
:10171C0002FA01F20BD91CEB03030EF1FF3A80F035
:10172C008580994540F28280AEF1020E6344A3EBB2
:10173C000909A4B2B9FBF0F300FB139944EA09447C
:10174C0003FB06F6A64208D91CEB040403F1FF3098
:10175C0068D2A64266D9023B644443EA0E40A41BFD
:10176C00A0FB02E6B4427346B14652D34FD05DB1F2
:10177C00B8EB030264EB090404FA07F722FA01F34D
:10178C001F43CC40C5E9007400214CE7C2F1200195
:10179C0020FA01F30CFA02FC26FA01F196403343CD
:1017AC004FEA1C471FFA8CFEB1FBF7F007FB101633
:1017BC00190C41EA064100FB0EF68E4204FA02F4C3
:1017CC0008D91CEB010100F1FF382DD28E422BD928
:1017DC0002386144891B9BB2B1FBF7F607FB16116B
:1017EC0043EA014306FB0EF1994208D91CEB0303B3
:1017FC0006F1FF3814D2994212D9023E63445B1AA7
:10180C0046EA004136E73946EDE6184602E7F04570
:10181C00ADD2BEEB020366EB0C060138B146A6E76F
:10182C004646ECE7034698E74046D3E7D6467EE7C4
:10183C006444023847E708460DE7023E63442DE74F
:10184C00830730B547D0541E002A3ED0CAB2034697
:10185C0001E0013C39D303F8012B9D07F9D1032C8E
:10186C002CD9CDB205EB05250F2C05EB054535D94B
:10187C00A4F1100222F00F0C03F1100EE6444FEA13
:10188C00121C1A46C2E90055C2E9025510327245C3
:10189C00F8D10CF1010214F00C0F03EB021204F05E
:1018AC000F0C13D0ACF1040323F0030304331344E3
:1018BC0042F8045B9342FBD10CF003042CB1C9B287
:1018CC001C4403F8011BA342FBD130BD64461346F4
:1018DC00002CF4D1F9E703461446C0E71A46A44697
:1018EC00E0E700BF70B50F4B0F4DAB42A3EB050605
:1018FC0007D0B610002455F8043B01349847A64293
:10190C00F9D800F07FF8094D094B5E1BAB424FEA4A
:10191C00A60606D0002455F8043B01349847A6428D
:10192C00F9D870BD401A0008401A0008401A000887
:10193C00481A0008704700BF704700BF024B13B134
:10194C00024800F005B87047000000006919000853
:10195C00002301461A46184600F014B838B5074D56
:10196C00074C2C1BA41005D0013C55F8043D98479E
:10197C00002CF9D1BDE8384000F04AB84C1A0008E8
:10198C00481A00082DE9F8431B4D0646286898466E
:10199C000F469146FFF7CEFF184B1C681CB3286806
:1019AC0065681F2D22DC4EB96B1C0235636044F850
:1019BC002570FFF7C1FF0020BDE8F88304EB85011B
:1019CC000123C1F88890D4F88821AB401A43022E29
:1019DC00C4F88821C1F80881E6D1D4F88C211A43C7
:1019EC00C4F88C21E0E7064C1C60D8E7FFF7A4FF95
:1019FC004FF0FF30E0E700BF0C000020A0000020FB
:101A0C00A4000020F8B500BFF8BC08BC9E46704787
:0C1A1C00F8B500BFF8BC08BC9E4670473F
:101A28000000000000000000010203040607080986
:081A380058FBFF7F01000000D4
:081A400049190008A102000889
:041A48007902000817
:101A4C000024F40001000000100000009C000020A5
:04000005080001AD41
:00000001FF
